{
   "_format": "hh-sol-artifact-1",
   "contractName": "WavePortal",
   "sourceName": "contracts/WavePortal.sol",
   "abi": [
      {
         "inputs": [],
         "stateMutability": "nonpayable",
         "type": "constructor"
      },
      {
         "anonymous": false,
         "inputs": [
            {
               "indexed": true,
               "internalType": "address",
               "name": "from",
               "type": "address"
            },
            {
               "indexed": false,
               "internalType": "uint256",
               "name": "timestamp",
               "type": "uint256"
            },
            {
               "indexed": false,
               "internalType": "string",
               "name": "message",
               "type": "string"
            }
         ],
         "name": "NewWave",
         "type": "event"
      },
      {
         "inputs": [],
         "name": "getAllWaves",
         "outputs": [
            {
               "components": [
                  {
                     "internalType": "address",
                     "name": "waver",
                     "type": "address"
                  },
                  {
                     "internalType": "string",
                     "name": "message",
                     "type": "string"
                  },
                  {
                     "internalType": "uint256",
                     "name": "timestamp",
                     "type": "uint256"
                  }
               ],
               "internalType": "struct WavePortal.Wave[]",
               "name": "",
               "type": "tuple[]"
            }
         ],
         "stateMutability": "view",
         "type": "function"
      },
      {
         "inputs": [],
         "name": "getTotalWaves",
         "outputs": [
            {
               "internalType": "uint256",
               "name": "",
               "type": "uint256"
            }
         ],
         "stateMutability": "view",
         "type": "function"
      },
      {
         "inputs": [],
         "name": "getWavers",
         "outputs": [],
         "stateMutability": "view",
         "type": "function"
      },
      {
         "inputs": [
            {
               "internalType": "string",
               "name": "_message",
               "type": "string"
            }
         ],
         "name": "wave",
         "outputs": [],
         "stateMutability": "nonpayable",
         "type": "function"
      },
      {
         "inputs": [
            {
               "internalType": "uint256",
               "name": "",
               "type": "uint256"
            }
         ],
         "name": "wavers",
         "outputs": [
            {
               "internalType": "address",
               "name": "",
               "type": "address"
            }
         ],
         "stateMutability": "view",
         "type": "function"
      }
   ],
   "bytecode": "0x60806040523480156200001157600080fd5b50620000416040518060600160405280603181526020016200116b603191396200004760201b6200050e1760201c565b620001db565b620000e7816040516024016200005e919062000154565b6040516020818303038152906040527f41304fac000000000000000000000000000000000000000000000000000000007bffffffffffffffffffffffffffffffffffffffffffffffffffffffff19166020820180517bffffffffffffffffffffffffffffffffffffffffffffffffffffffff8381831617835250505050620000ea60201b60201c565b50565b60008151905060006a636f6e736f6c652e6c6f679050602083016000808483855afa5050505050565b6000620001208262000178565b6200012c818562000183565b93506200013e81856020860162000194565b6200014981620001ca565b840191505092915050565b6000602082019050818103600083015262000170818462000113565b905092915050565b600081519050919050565b600082825260208201905092915050565b60005b83811015620001b457808201518184015260208101905062000197565b83811115620001c4576000848401525b50505050565b6000601f19601f8301169050919050565b610f8080620001eb6000396000f3fe608060405234801561001057600080fd5b50600436106100575760003560e01c80633ca736bd1461005c578063449d46c01461008c578063635f29f8146100a85780639a2cdc08146100b2578063bd43a908146100d0575b600080fd5b61007660048036038101906100719190610908565b6100ee565b6040516100839190610ab8565b60405180910390f35b6100a660048036038101906100a191906108c7565b61012d565b005b6100b0610288565b005b6100ba61038f565b6040516100c79190610bbc565b60405180910390f35b6100d86103bd565b6040516100e59190610ad3565b60405180910390f35b600181815481106100fe57600080fd5b906000526020600020016000915054906101000a900473ffffffffffffffffffffffffffffffffffffffff1681565b600160008082825461013f9190610cc3565b92505081905550600260405180606001604052803373ffffffffffffffffffffffffffffffffffffffff16815260200183815260200142815250908060018154018082558091505060019003906000526020600020906003020160009091909190915060008201518160000160006101000a81548173ffffffffffffffffffffffffffffffffffffffff021916908373ffffffffffffffffffffffffffffffffffffffff16021790555060208201518160010190805190602001906102059291906107a7565b506040820151816002015550506102356040518060600160405280602c8152602001610ef9602c913933836105a7565b3373ffffffffffffffffffffffffffffffffffffffff167f5f7e16dc676677766a70e9c5628aa6c54ddb8b6e5188e2ae1e1f17f1ffbea716428360405161027d929190610bd7565b60405180910390a250565b6102c66040518060400160405280601881526020017f486572652061726520616c6c207468652077617665727321000000000000000081525061050e565b60005b60018054905081101561038c576103796040518060400160405280600b81526020017f416464726573733a20257300000000000000000000000000000000000000000081525060018381548110610349577f4e487b7100000000000000000000000000000000000000000000000000000000600052603260045260246000fd5b9060005260206000200160009054906101000a900473ffffffffffffffffffffffffffffffffffffffff16610646565b808061038490610dfa565b9150506102c9565b50565b60006103b5604051806060016040528060268152602001610f25602691396000546106e2565b600054905090565b60606002805480602002602001604051908101604052809291908181526020016000905b8282101561050557838290600052602060002090600302016040518060600160405290816000820160009054906101000a900473ffffffffffffffffffffffffffffffffffffffff1673ffffffffffffffffffffffffffffffffffffffff1673ffffffffffffffffffffffffffffffffffffffff16815260200160018201805461046a90610d97565b80601f016020809104026020016040519081016040528092919081815260200182805461049690610d97565b80156104e35780601f106104b8576101008083540402835291602001916104e3565b820191906000526020600020905b8154815290600101906020018083116104c657829003601f168201915b50505050508152602001600282015481525050815260200190600101906103e1565b50505050905090565b6105a4816040516024016105229190610af5565b6040516020818303038152906040527f41304fac000000000000000000000000000000000000000000000000000000007bffffffffffffffffffffffffffffffffffffffffffffffffffffffff19166020820180517bffffffffffffffffffffffffffffffffffffffffffffffffffffffff838183161783525050505061077e565b50565b6106418383836040516024016105bf93929190610b47565b6040516020818303038152906040527fe0e9ad4f000000000000000000000000000000000000000000000000000000007bffffffffffffffffffffffffffffffffffffffffffffffffffffffff19166020820180517bffffffffffffffffffffffffffffffffffffffffffffffffffffffff838183161783525050505061077e565b505050565b6106de828260405160240161065c929190610b17565b6040516020818303038152906040527f319af333000000000000000000000000000000000000000000000000000000007bffffffffffffffffffffffffffffffffffffffffffffffffffffffff19166020820180517bffffffffffffffffffffffffffffffffffffffffffffffffffffffff838183161783525050505061077e565b5050565b61077a82826040516024016106f8929190610b8c565b6040516020818303038152906040527f9710a9d0000000000000000000000000000000000000000000000000000000007bffffffffffffffffffffffffffffffffffffffffffffffffffffffff19166020820180517bffffffffffffffffffffffffffffffffffffffffffffffffffffffff838183161783525050505061077e565b5050565b60008151905060006a636f6e736f6c652e6c6f679050602083016000808483855afa5050505050565b8280546107b390610d97565b90600052602060002090601f0160209004810192826107d5576000855561081c565b82601f106107ee57805160ff191683800117855561081c565b8280016001018555821561081c579182015b8281111561081b578251825591602001919060010190610800565b5b509050610829919061082d565b5090565b5b8082111561084657600081600090555060010161082e565b5090565b600061085d61085884610c2c565b610c07565b90508281526020810184848401111561087557600080fd5b610880848285610d55565b509392505050565b600082601f83011261089957600080fd5b81356108a984826020860161084a565b91505092915050565b6000813590506108c181610ee1565b92915050565b6000602082840312156108d957600080fd5b600082013567ffffffffffffffff8111156108f357600080fd5b6108ff84828501610888565b91505092915050565b60006020828403121561091a57600080fd5b6000610928848285016108b2565b91505092915050565b600061093d8383610a4a565b905092915050565b61094e81610d19565b82525050565b61095d81610d19565b82525050565b600061096e82610c6d565b6109788185610c90565b93508360208202850161098a85610c5d565b8060005b858110156109c657848403895281516109a78582610931565b94506109b283610c83565b925060208a0199505060018101905061098e565b50829750879550505050505092915050565b60006109e382610c78565b6109ed8185610ca1565b93506109fd818560208601610d64565b610a0681610ed0565b840191505092915050565b6000610a1c82610c78565b610a268185610cb2565b9350610a36818560208601610d64565b610a3f81610ed0565b840191505092915050565b6000606083016000830151610a626000860182610945565b5060208301518482036020860152610a7a82826109d8565b9150506040830151610a8f6040860182610a9a565b508091505092915050565b610aa381610d4b565b82525050565b610ab281610d4b565b82525050565b6000602082019050610acd6000830184610954565b92915050565b60006020820190508181036000830152610aed8184610963565b905092915050565b60006020820190508181036000830152610b0f8184610a11565b905092915050565b60006040820190508181036000830152610b318185610a11565b9050610b406020830184610954565b9392505050565b60006060820190508181036000830152610b618186610a11565b9050610b706020830185610954565b8181036040830152610b828184610a11565b9050949350505050565b60006040820190508181036000830152610ba68185610a11565b9050610bb56020830184610aa9565b9392505050565b6000602082019050610bd16000830184610aa9565b92915050565b6000604082019050610bec6000830185610aa9565b8181036020830152610bfe8184610a11565b90509392505050565b6000610c11610c22565b9050610c1d8282610dc9565b919050565b6000604051905090565b600067ffffffffffffffff821115610c4757610c46610ea1565b5b610c5082610ed0565b9050602081019050919050565b6000819050602082019050919050565b600081519050919050565b600081519050919050565b6000602082019050919050565b600082825260208201905092915050565b600082825260208201905092915050565b600082825260208201905092915050565b6000610cce82610d4b565b9150610cd983610d4b565b9250827fffffffffffffffffffffffffffffffffffffffffffffffffffffffffffffffff03821115610d0e57610d0d610e43565b5b828201905092915050565b6000610d2482610d2b565b9050919050565b600073ffffffffffffffffffffffffffffffffffffffff82169050919050565b6000819050919050565b82818337600083830152505050565b60005b83811015610d82578082015181840152602081019050610d67565b83811115610d91576000848401525b50505050565b60006002820490506001821680610daf57607f821691505b60208210811415610dc357610dc2610e72565b5b50919050565b610dd282610ed0565b810181811067ffffffffffffffff82111715610df157610df0610ea1565b5b80604052505050565b6000610e0582610d4b565b91507fffffffffffffffffffffffffffffffffffffffffffffffffffffffffffffffff821415610e3857610e37610e43565b5b600182019050919050565b7f4e487b7100000000000000000000000000000000000000000000000000000000600052601160045260246000fd5b7f4e487b7100000000000000000000000000000000000000000000000000000000600052602260045260246000fd5b7f4e487b7100000000000000000000000000000000000000000000000000000000600052604160045260246000fd5b6000601f19601f8301169050919050565b610eea81610d4b565b8114610ef557600080fd5b5056fe25732068617320776176656421202f77206d6573736167652025732046696e616c6c79206e6f7469636564215765206861766520256420746f74616c207761766573212054616b6520746861742064616421a26469706673582212203fd12e5e14c5f5ee850169d990d7c4516f6b1c459e458b78909d11b45652d40d64736f6c63430008040033596f20796f2c204920616d206120636f6e747261637420616e64204920616d20736d6172742e204265657020626f6f702e",
   "linkReferences": {},
   "deployedLinkReferences": {}
}